{
  "_format": "hh3-artifact-1",
  "contractName": "SigilNFT",
  "sourceName": "contracts/SigilNFT.sol",
  "abi": [
    {
      "inputs": [
        {
          "internalType": "string",
          "name": "_name",
          "type": "string"
        },
        {
          "internalType": "string",
          "name": "_symbol",
          "type": "string"
        },
        {
          "internalType": "uint256",
          "name": "_mintPrice",
          "type": "uint256"
        },
        {
          "internalType": "uint256",
          "name": "_maxSupply",
          "type": "uint256"
        },
        {
          "internalType": "uint256",
          "name": "_maxPerWallet",
          "type": "uint256"
        },
        {
          "internalType": "string",
          "name": "_baseTokenURI",
          "type": "string"
        }
      ],
      "stateMutability": "nonpayable",
      "type": "constructor"
    },
    {
      "inputs": [
        {
          "internalType": "address",
          "name": "sender",
          "type": "address"
        },
        {
          "internalType": "uint256",
          "name": "tokenId",
          "type": "uint256"
        },
        {
          "internalType": "address",
          "name": "owner",
          "type": "address"
        }
      ],
      "name": "ERC721IncorrectOwner",
      "type": "error"
    },
    {
      "inputs": [
        {
          "internalType": "address",
          "name": "operator",
          "type": "address"
        },
        {
          "internalType": "uint256",
          "name": "tokenId",
          "type": "uint256"
        }
      ],
      "name": "ERC721InsufficientApproval",
      "type": "error"
    },
    {
      "inputs": [
        {
          "internalType": "address",
          "name": "approver",
          "type": "address"
        }
      ],
      "name": "ERC721InvalidApprover",
      "type": "error"
    },
    {
      "inputs": [
        {
          "internalType": "address",
          "name": "operator",
          "type": "address"
        }
      ],
      "name": "ERC721InvalidOperator",
      "type": "error"
    },
    {
      "inputs": [
        {
          "internalType": "address",
          "name": "owner",
          "type": "address"
        }
      ],
      "name": "ERC721InvalidOwner",
      "type": "error"
    },
    {
      "inputs": [
        {
          "internalType": "address",
          "name": "receiver",
          "type": "address"
        }
      ],
      "name": "ERC721InvalidReceiver",
      "type": "error"
    },
    {
      "inputs": [
        {
          "internalType": "address",
          "name": "sender",
          "type": "address"
        }
      ],
      "name": "ERC721InvalidSender",
      "type": "error"
    },
    {
      "inputs": [
        {
          "internalType": "uint256",
          "name": "tokenId",
          "type": "uint256"
        }
      ],
      "name": "ERC721NonexistentToken",
      "type": "error"
    },
    {
      "inputs": [
        {
          "internalType": "address",
          "name": "owner",
          "type": "address"
        }
      ],
      "name": "OwnableInvalidOwner",
      "type": "error"
    },
    {
      "inputs": [
        {
          "internalType": "address",
          "name": "account",
          "type": "address"
        }
      ],
      "name": "OwnableUnauthorizedAccount",
      "type": "error"
    },
    {
      "anonymous": false,
      "inputs": [
        {
          "indexed": true,
          "internalType": "address",
          "name": "owner",
          "type": "address"
        },
        {
          "indexed": true,
          "internalType": "address",
          "name": "approved",
          "type": "address"
        },
        {
          "indexed": true,
          "internalType": "uint256",
          "name": "tokenId",
          "type": "uint256"
        }
      ],
      "name": "Approval",
      "type": "event"
    },
    {
      "anonymous": false,
      "inputs": [
        {
          "indexed": true,
          "internalType": "address",
          "name": "owner",
          "type": "address"
        },
        {
          "indexed": true,
          "internalType": "address",
          "name": "operator",
          "type": "address"
        },
        {
          "indexed": false,
          "internalType": "bool",
          "name": "approved",
          "type": "bool"
        }
      ],
      "name": "ApprovalForAll",
      "type": "event"
    },
    {
      "anonymous": false,
      "inputs": [
        {
          "indexed": true,
          "internalType": "address",
          "name": "previousOwner",
          "type": "address"
        },
        {
          "indexed": true,
          "internalType": "address",
          "name": "newOwner",
          "type": "address"
        }
      ],
      "name": "OwnershipTransferred",
      "type": "event"
    },
    {
      "anonymous": false,
      "inputs": [
        {
          "indexed": true,
          "internalType": "address",
          "name": "from",
          "type": "address"
        },
        {
          "indexed": true,
          "internalType": "address",
          "name": "to",
          "type": "address"
        },
        {
          "indexed": true,
          "internalType": "uint256",
          "name": "tokenId",
          "type": "uint256"
        }
      ],
      "name": "Transfer",
      "type": "event"
    },
    {
      "inputs": [],
      "name": "PROTOCOL_FEE_BPS",
      "outputs": [
        {
          "internalType": "uint256",
          "name": "",
          "type": "uint256"
        }
      ],
      "stateMutability": "view",
      "type": "function"
    },
    {
      "inputs": [],
      "name": "SIGIL_TREASURY",
      "outputs": [
        {
          "internalType": "address",
          "name": "",
          "type": "address"
        }
      ],
      "stateMutability": "view",
      "type": "function"
    },
    {
      "inputs": [
        {
          "internalType": "address[]",
          "name": "addresses",
          "type": "address[]"
        }
      ],
      "name": "addToWhitelist",
      "outputs": [],
      "stateMutability": "nonpayable",
      "type": "function"
    },
    {
      "inputs": [
        {
          "internalType": "address",
          "name": "to",
          "type": "address"
        },
        {
          "internalType": "uint256",
          "name": "tokenId",
          "type": "uint256"
        }
      ],
      "name": "approve",
      "outputs": [],
      "stateMutability": "nonpayable",
      "type": "function"
    },
    {
      "inputs": [
        {
          "internalType": "address",
          "name": "owner",
          "type": "address"
        }
      ],
      "name": "balanceOf",
      "outputs": [
        {
          "internalType": "uint256",
          "name": "",
          "type": "uint256"
        }
      ],
      "stateMutability": "view",
      "type": "function"
    },
    {
      "inputs": [],
      "name": "baseTokenURI",
      "outputs": [
        {
          "internalType": "string",
          "name": "",
          "type": "string"
        }
      ],
      "stateMutability": "view",
      "type": "function"
    },
    {
      "inputs": [
        {
          "internalType": "uint256",
          "name": "tokenId",
          "type": "uint256"
        }
      ],
      "name": "getApproved",
      "outputs": [
        {
          "internalType": "address",
          "name": "",
          "type": "address"
        }
      ],
      "stateMutability": "view",
      "type": "function"
    },
    {
      "inputs": [
        {
          "internalType": "address",
          "name": "owner",
          "type": "address"
        },
        {
          "internalType": "address",
          "name": "operator",
          "type": "address"
        }
      ],
      "name": "isApprovedForAll",
      "outputs": [
        {
          "internalType": "bool",
          "name": "",
          "type": "bool"
        }
      ],
      "stateMutability": "view",
      "type": "function"
    },
    {
      "inputs": [],
      "name": "maxPerWallet",
      "outputs": [
        {
          "internalType": "uint256",
          "name": "",
          "type": "uint256"
        }
      ],
      "stateMutability": "view",
      "type": "function"
    },
    {
      "inputs": [],
      "name": "maxSupply",
      "outputs": [
        {
          "internalType": "uint256",
          "name": "",
          "type": "uint256"
        }
      ],
      "stateMutability": "view",
      "type": "function"
    },
    {
      "inputs": [
        {
          "internalType": "uint256",
          "name": "quantity",
          "type": "uint256"
        }
      ],
      "name": "mint",
      "outputs": [],
      "stateMutability": "payable",
      "type": "function"
    },
    {
      "inputs": [],
      "name": "mintOpen",
      "outputs": [
        {
          "internalType": "bool",
          "name": "",
          "type": "bool"
        }
      ],
      "stateMutability": "view",
      "type": "function"
    },
    {
      "inputs": [],
      "name": "mintPrice",
      "outputs": [
        {
          "internalType": "uint256",
          "name": "",
          "type": "uint256"
        }
      ],
      "stateMutability": "view",
      "type": "function"
    },
    {
      "inputs": [
        {
          "internalType": "address",
          "name": "",
          "type": "address"
        }
      ],
      "name": "mintedPerWallet",
      "outputs": [
        {
          "internalType": "uint256",
          "name": "",
          "type": "uint256"
        }
      ],
      "stateMutability": "view",
      "type": "function"
    },
    {
      "inputs": [],
      "name": "name",
      "outputs": [
        {
          "internalType": "string",
          "name": "",
          "type": "string"
        }
      ],
      "stateMutability": "view",
      "type": "function"
    },
    {
      "inputs": [],
      "name": "owner",
      "outputs": [
        {
          "internalType": "address",
          "name": "",
          "type": "address"
        }
      ],
      "stateMutability": "view",
      "type": "function"
    },
    {
      "inputs": [
        {
          "internalType": "uint256",
          "name": "tokenId",
          "type": "uint256"
        }
      ],
      "name": "ownerOf",
      "outputs": [
        {
          "internalType": "address",
          "name": "",
          "type": "address"
        }
      ],
      "stateMutability": "view",
      "type": "function"
    },
    {
      "inputs": [
        {
          "internalType": "address[]",
          "name": "addresses",
          "type": "address[]"
        }
      ],
      "name": "removeFromWhitelist",
      "outputs": [],
      "stateMutability": "nonpayable",
      "type": "function"
    },
    {
      "inputs": [],
      "name": "renounceOwnership",
      "outputs": [],
      "stateMutability": "nonpayable",
      "type": "function"
    },
    {
      "inputs": [
        {
          "internalType": "address",
          "name": "from",
          "type": "address"
        },
        {
          "internalType": "address",
          "name": "to",
          "type": "address"
        },
        {
          "internalType": "uint256",
          "name": "tokenId",
          "type": "uint256"
        }
      ],
      "name": "safeTransferFrom",
      "outputs": [],
      "stateMutability": "nonpayable",
      "type": "function"
    },
    {
      "inputs": [
        {
          "internalType": "address",
          "name": "from",
          "type": "address"
        },
        {
          "internalType": "address",
          "name": "to",
          "type": "address"
        },
        {
          "internalType": "uint256",
          "name": "tokenId",
          "type": "uint256"
        },
        {
          "internalType": "bytes",
          "name": "data",
          "type": "bytes"
        }
      ],
      "name": "safeTransferFrom",
      "outputs": [],
      "stateMutability": "nonpayable",
      "type": "function"
    },
    {
      "inputs": [
        {
          "internalType": "address",
          "name": "operator",
          "type": "address"
        },
        {
          "internalType": "bool",
          "name": "approved",
          "type": "bool"
        }
      ],
      "name": "setApprovalForAll",
      "outputs": [],
      "stateMutability": "nonpayable",
      "type": "function"
    },
    {
      "inputs": [
        {
          "internalType": "bool",
          "name": "_open",
          "type": "bool"
        }
      ],
      "name": "setMintOpen",
      "outputs": [],
      "stateMutability": "nonpayable",
      "type": "function"
    },
    {
      "inputs": [
        {
          "internalType": "bool",
          "name": "_whitelistOnly",
          "type": "bool"
        }
      ],
      "name": "setWhitelistOnly",
      "outputs": [],
      "stateMutability": "nonpayable",
      "type": "function"
    },
    {
      "inputs": [
        {
          "internalType": "bytes4",
          "name": "interfaceId",
          "type": "bytes4"
        }
      ],
      "name": "supportsInterface",
      "outputs": [
        {
          "internalType": "bool",
          "name": "",
          "type": "bool"
        }
      ],
      "stateMutability": "view",
      "type": "function"
    },
    {
      "inputs": [],
      "name": "symbol",
      "outputs": [
        {
          "internalType": "string",
          "name": "",
          "type": "string"
        }
      ],
      "stateMutability": "view",
      "type": "function"
    },
    {
      "inputs": [
        {
          "internalType": "uint256",
          "name": "tokenId",
          "type": "uint256"
        }
      ],
      "name": "tokenURI",
      "outputs": [
        {
          "internalType": "string",
          "name": "",
          "type": "string"
        }
      ],
      "stateMutability": "view",
      "type": "function"
    },
    {
      "inputs": [],
      "name": "totalMinted",
      "outputs": [
        {
          "internalType": "uint256",
          "name": "",
          "type": "uint256"
        }
      ],
      "stateMutability": "view",
      "type": "function"
    },
    {
      "inputs": [
        {
          "internalType": "address",
          "name": "from",
          "type": "address"
        },
        {
          "internalType": "address",
          "name": "to",
          "type": "address"
        },
        {
          "internalType": "uint256",
          "name": "tokenId",
          "type": "uint256"
        }
      ],
      "name": "transferFrom",
      "outputs": [],
      "stateMutability": "nonpayable",
      "type": "function"
    },
    {
      "inputs": [
        {
          "internalType": "address",
          "name": "newOwner",
          "type": "address"
        }
      ],
      "name": "transferOwnership",
      "outputs": [],
      "stateMutability": "nonpayable",
      "type": "function"
    },
    {
      "inputs": [
        {
          "internalType": "address",
          "name": "",
          "type": "address"
        }
      ],
      "name": "whitelist",
      "outputs": [
        {
          "internalType": "bool",
          "name": "",
          "type": "bool"
        }
      ],
      "stateMutability": "view",
      "type": "function"
    },
    {
      "inputs": [],
      "name": "whitelistOnly",
      "outputs": [
        {
          "internalType": "bool",
          "name": "",
          "type": "bool"
        }
      ],
      "stateMutability": "view",
      "type": "function"
    },
    {
      "inputs": [],
      "name": "withdraw",
      "outputs": [],
      "stateMutability": "nonpayable",
      "type": "function"
    }
  ],
  "bytecode": "0x608060405234801561000f575f5ffd5b506040516137563803806137568339818101604052810190610031919061037b565b338686815f9081610042919061065f565b508060019081610052919061065f565b5050505f73ffffffffffffffffffffffffffffffffffffffff168173ffffffffffffffffffffffffffffffffffffffff16036100c5575f6040517f1e4fbdf70000000000000000000000000000000000000000000000000000000081526004016100bc919061076d565b60405180910390fd5b6100d48161013860201b60201c565b50836007819055508260088190555081600a8190555080600c90816100f9919061065f565b505f600b5f6101000a81548160ff0219169083151502179055505f600b60016101000a81548160ff021916908315150217905550505050505050610786565b5f60065f9054906101000a900473ffffffffffffffffffffffffffffffffffffffff1690508160065f6101000a81548173ffffffffffffffffffffffffffffffffffffffff021916908373ffffffffffffffffffffffffffffffffffffffff1602179055508173ffffffffffffffffffffffffffffffffffffffff168173ffffffffffffffffffffffffffffffffffffffff167f8be0079c531659141344cd1fd0a4f28419497f9722a3daafe3b4186f6b6457e060405160405180910390a35050565b5f604051905090565b5f5ffd5b5f5ffd5b5f5ffd5b5f5ffd5b5f601f19601f8301169050919050565b7f4e487b71000000000000000000000000000000000000000000000000000000005f52604160045260245ffd5b61025a82610214565b810181811067ffffffffffffffff8211171561027957610278610224565b5b80604052505050565b5f61028b6101fb565b90506102978282610251565b919050565b5f67ffffffffffffffff8211156102b6576102b5610224565b5b6102bf82610214565b9050602081019050919050565b8281835e5f83830152505050565b5f6102ec6102e78461029c565b610282565b90508281526020810184848401111561030857610307610210565b5b6103138482856102cc565b509392505050565b5f82601f83011261032f5761032e61020c565b5b815161033f8482602086016102da565b91505092915050565b5f819050919050565b61035a81610348565b8114610364575f5ffd5b50565b5f8151905061037581610351565b92915050565b5f5f5f5f5f5f60c0878903121561039557610394610204565b5b5f87015167ffffffffffffffff8111156103b2576103b1610208565b5b6103be89828a0161031b565b965050602087015167ffffffffffffffff8111156103df576103de610208565b5b6103eb89828a0161031b565b95505060406103fc89828a01610367565b945050606061040d89828a01610367565b935050608061041e89828a01610367565b92505060a087015167ffffffffffffffff81111561043f5761043e610208565b5b61044b89828a0161031b565b9150509295509295509295565b5f81519050919050565b7f4e487b71000000000000000000000000000000000000000000000000000000005f52602260045260245ffd5b5f60028204905060018216806104a657607f821691505b6020821081036104b9576104b8610462565b5b50919050565b5f819050815f5260205f209050919050565b5f6020601f8301049050919050565b5f82821b905092915050565b5f6008830261051b7fffffffffffffffffffffffffffffffffffffffffffffffffffffffffffffffff826104e0565b61052586836104e0565b95508019841693508086168417925050509392505050565b5f819050919050565b5f61056061055b61055684610348565b61053d565b610348565b9050919050565b5f819050919050565b61057983610546565b61058d61058582610567565b8484546104ec565b825550505050565b5f5f905090565b6105a4610595565b6105af818484610570565b505050565b5b818110156105d2576105c75f8261059c565b6001810190506105b5565b5050565b601f821115610617576105e8816104bf565b6105f1846104d1565b81016020851015610600578190505b61061461060c856104d1565b8301826105b4565b50505b505050565b5f82821c905092915050565b5f6106375f198460080261061c565b1980831691505092915050565b5f61064f8383610628565b9150826002028217905092915050565b61066882610458565b67ffffffffffffffff81111561068157610680610224565b5b61068b825461048f565b6106968282856105d6565b5f60209050601f8311600181146106c7575f84156106b5578287015190505b6106bf8582610644565b865550610726565b601f1984166106d5866104bf565b5f5b828110156106fc578489015182556001820191506020850194506020810190506106d7565b868310156107195784890151610715601f891682610628565b8355505b6001600288020188555050505b505050505050565b5f73ffffffffffffffffffffffffffffffffffffffff82169050919050565b5f6107578261072e565b9050919050565b6107678161074d565b82525050565b5f6020820190506107805f83018461075e565b92915050565b612fc3806107935f395ff3fe6080604052600436106101ed575f3560e01c80637f6497831161010c578063be3782281161009f578063dd18e7d41161006e578063dd18e7d4146106c3578063e985e9c5146106ed578063ea05a8c614610729578063f2fde38b14610751578063f8004d3114610779576101ed565b8063be37822814610609578063c87b56dd14610633578063d547cfb71461066f578063d5abeb0114610699576101ed565b8063a0712d68116100db578063a0712d6814610573578063a22cb4651461058f578063a2309ff8146105b7578063b88d4fde146105e1576101ed565b80637f649783146104bb5780638da5cb5b146104e357806395d89b411461050d5780639b19251a14610537576101ed565b806342842e0e116101845780636352211e116101535780636352211e146104035780636817c76c1461043f57806370a0823114610469578063715018a6146104a5576101ed565b806342842e0e1461035f578063453c2310146103875780634b4687b5146103b1578063548db174146103db576101ed565b806323b872dd116101c057806323b872dd146102bb57806324bbd049146102e35780633a602b4d1461030d5780633ccfd60b14610349576101ed565b806301ffc9a7146101f157806306fdde031461022d578063081812fc14610257578063095ea7b314610293575b5f5ffd5b3480156101fc575f5ffd5b506102176004803603810190610212919061241b565b6107a1565b6040516102249190612460565b60405180910390f35b348015610238575f5ffd5b50610241610882565b60405161024e91906124e9565b60405180910390f35b348015610262575f5ffd5b5061027d6004803603810190610278919061253c565b610911565b60405161028a91906125a6565b60405180910390f35b34801561029e575f5ffd5b506102b960048036038101906102b491906125e9565b61092c565b005b3480156102c6575f5ffd5b506102e160048036038101906102dc9190612627565b610942565b005b3480156102ee575f5ffd5b506102f7610a41565b6040516103049190612460565b60405180910390f35b348015610318575f5ffd5b50610333600480360381019061032e9190612677565b610a53565b60405161034091906126b1565b60405180910390f35b348015610354575f5ffd5b5061035d610a68565b005b34801561036a575f5ffd5b5061038560048036038101906103809190612627565b610abd565b005b348015610392575f5ffd5b5061039b610adc565b6040516103a891906126b1565b60405180910390f35b3480156103bc575f5ffd5b506103c5610ae2565b6040516103d29190612460565b60405180910390f35b3480156103e6575f5ffd5b5061040160048036038101906103fc919061272b565b610af5565b005b34801561040e575f5ffd5b506104296004803603810190610424919061253c565b610b9a565b60405161043691906125a6565b60405180910390f35b34801561044a575f5ffd5b50610453610bab565b60405161046091906126b1565b60405180910390f35b348015610474575f5ffd5b5061048f600480360381019061048a9190612677565b610bb1565b60405161049c91906126b1565b60405180910390f35b3480156104b0575f5ffd5b506104b9610c67565b005b3480156104c6575f5ffd5b506104e160048036038101906104dc919061272b565b610c7a565b005b3480156104ee575f5ffd5b506104f7610d20565b60405161050491906125a6565b60405180910390f35b348015610518575f5ffd5b50610521610d48565b60405161052e91906124e9565b60405180910390f35b348015610542575f5ffd5b5061055d60048036038101906105589190612677565b610dd8565b60405161056a9190612460565b60405180910390f35b61058d6004803603810190610588919061253c565b610df5565b005b34801561059a575f5ffd5b506105b560048036038101906105b091906127a0565b611190565b005b3480156105c2575f5ffd5b506105cb6111a6565b6040516105d891906126b1565b60405180910390f35b3480156105ec575f5ffd5b5061060760048036038101906106029190612906565b6111ac565b005b348015610614575f5ffd5b5061061d6111d1565b60405161062a91906126b1565b60405180910390f35b34801561063e575f5ffd5b506106596004803603810190610654919061253c565b6111d6565b60405161066691906124e9565b60405180910390f35b34801561067a575f5ffd5b5061068361123c565b60405161069091906124e9565b60405180910390f35b3480156106a4575f5ffd5b506106ad6112c8565b6040516106ba91906126b1565b60405180910390f35b3480156106ce575f5ffd5b506106d76112ce565b6040516106e491906125a6565b60405180910390f35b3480156106f8575f5ffd5b50610713600480360381019061070e9190612986565b6112e6565b6040516107209190612460565b60405180910390f35b348015610734575f5ffd5b5061074f600480360381019061074a91906129c4565b611374565b005b34801561075c575f5ffd5b5061077760048036038101906107729190612677565b611399565b005b348015610784575f5ffd5b5061079f600480360381019061079a91906129c4565b61141d565b005b5f7f80ac58cd000000000000000000000000000000000000000000000000000000007bffffffffffffffffffffffffffffffffffffffffffffffffffffffff1916827bffffffffffffffffffffffffffffffffffffffffffffffffffffffff1916148061086b57507f5b5e139f000000000000000000000000000000000000000000000000000000007bffffffffffffffffffffffffffffffffffffffffffffffffffffffff1916827bffffffffffffffffffffffffffffffffffffffffffffffffffffffff1916145b8061087b575061087a82611441565b5b9050919050565b60605f805461089090612a1c565b80601f01602080910402602001604051908101604052809291908181526020018280546108bc90612a1c565b80156109075780601f106108de57610100808354040283529160200191610907565b820191905f5260205f20905b8154815290600101906020018083116108ea57829003601f168201915b5050505050905090565b5f61091b826114aa565b5061092582611530565b9050919050565b61093e8282610939611569565b611570565b5050565b5f73ffffffffffffffffffffffffffffffffffffffff168273ffffffffffffffffffffffffffffffffffffffff16036109b2575f6040517f64a0ae920000000000000000000000000000000000000000000000000000000081526004016109a991906125a6565b60405180910390fd5b5f6109c583836109c0611569565b611582565b90508373ffffffffffffffffffffffffffffffffffffffff168173ffffffffffffffffffffffffffffffffffffffff1614610a3b578382826040517f64283d7b000000000000000000000000000000000000000000000000000000008152600401610a3293929190612a4c565b60405180910390fd5b50505050565b600b5f9054906101000a900460ff1681565b600d602052805f5260405f205f915090505481565b610a7061178d565b610a78610d20565b73ffffffffffffffffffffffffffffffffffffffff166108fc4790811502906040515f60405180830381858888f19350505050158015610aba573d5f5f3e3d5ffd5b50565b610ad783838360405180602001604052805f8152506111ac565b505050565b600a5481565b600b60019054906101000a900460ff1681565b610afd61178d565b5f5f90505b82829050811015610b95575f600e5f858585818110610b2457610b23612a81565b5b9050602002016020810190610b399190612677565b73ffffffffffffffffffffffffffffffffffffffff1673ffffffffffffffffffffffffffffffffffffffff1681526020019081526020015f205f6101000a81548160ff0219169083151502179055508080600101915050610b02565b505050565b5f610ba4826114aa565b9050919050565b60075481565b5f5f73ffffffffffffffffffffffffffffffffffffffff168273ffffffffffffffffffffffffffffffffffffffff1603610c22575f6040517f89c62b64000000000000000000000000000000000000000000000000000000008152600401610c1991906125a6565b60405180910390fd5b60035f8373ffffffffffffffffffffffffffffffffffffffff1673ffffffffffffffffffffffffffffffffffffffff1681526020019081526020015f20549050919050565b610c6f61178d565b610c785f611814565b565b610c8261178d565b5f5f90505b82829050811015610d1b576001600e5f858585818110610caa57610ca9612a81565b5b9050602002016020810190610cbf9190612677565b73ffffffffffffffffffffffffffffffffffffffff1673ffffffffffffffffffffffffffffffffffffffff1681526020019081526020015f205f6101000a81548160ff0219169083151502179055508080600101915050610c87565b505050565b5f60065f9054906101000a900473ffffffffffffffffffffffffffffffffffffffff16905090565b606060018054610d5790612a1c565b80601f0160208091040260200160405190810160405280929190818152602001828054610d8390612a1c565b8015610dce5780601f10610da557610100808354040283529160200191610dce565b820191905f5260205f20905b815481529060010190602001808311610db157829003601f168201915b5050505050905090565b600e602052805f5260405f205f915054906101000a900460ff1681565b600b5f9054906101000a900460ff16610e43576040517f08c379a0000000000000000000000000000000000000000000000000000000008152600401610e3a90612af8565b60405180910390fd5b60085481600954610e549190612b43565b1115610e95576040517f08c379a0000000000000000000000000000000000000000000000000000000008152600401610e8c90612bc0565b60405180910390fd5b80600754610ea39190612bde565b341015610ee5576040517f08c379a0000000000000000000000000000000000000000000000000000000008152600401610edc90612c69565b60405180910390fd5b600a5481600d5f3373ffffffffffffffffffffffffffffffffffffffff1673ffffffffffffffffffffffffffffffffffffffff1681526020019081526020015f2054610f319190612b43565b1115610f72576040517f08c379a0000000000000000000000000000000000000000000000000000000008152600401610f6990612cd1565b60405180910390fd5b600b60019054906101000a900460ff161561101157600e5f3373ffffffffffffffffffffffffffffffffffffffff1673ffffffffffffffffffffffffffffffffffffffff1681526020019081526020015f205f9054906101000a900460ff16611010576040517f08c379a000000000000000000000000000000000000000000000000000000000815260040161100790612d39565b60405180910390fd5b5b5f816007546110209190612bde565b90505f612710600a836110339190612bde565b61103d9190612d84565b90505f818361104c9190612db4565b90505f8211156110af5773b8922f9591b36f82a671ef38c54c60b1396f59c873ffffffffffffffffffffffffffffffffffffffff166108fc8390811502906040515f60405180830381858888f193505050501580156110ad573d5f5f3e3d5ffd5b505b6110b7610d20565b73ffffffffffffffffffffffffffffffffffffffff166108fc8290811502906040515f60405180830381858888f193505050501580156110f9573d5f5f3e3d5ffd5b505f5f90505b848110156111895760095f81548092919061111990612de7565b919050555061112a336009546118d7565b600d5f3373ffffffffffffffffffffffffffffffffffffffff1673ffffffffffffffffffffffffffffffffffffffff1681526020019081526020015f205f81548092919061117790612de7565b919050555080806001019150506110ff565b5050505050565b6111a261119b611569565b83836118f4565b5050565b60095481565b6111b7848484610942565b6111cb6111c2611569565b85858585611acd565b50505050565b600a81565b60606111e1826114aa565b505f6111eb611c79565b90505f8151116112095760405180602001604052805f815250611234565b8061121384611d09565b604051602001611224929190612e68565b6040516020818303038152906040525b915050919050565b600c805461124990612a1c565b80601f016020809104026020016040519081016040528092919081815260200182805461127590612a1c565b80156112c05780601f10611297576101008083540402835291602001916112c0565b820191905f5260205f20905b8154815290600101906020018083116112a357829003601f168201915b505050505081565b60085481565b73b8922f9591b36f82a671ef38c54c60b1396f59c881565b5f60055f8473ffffffffffffffffffffffffffffffffffffffff1673ffffffffffffffffffffffffffffffffffffffff1681526020019081526020015f205f8373ffffffffffffffffffffffffffffffffffffffff1673ffffffffffffffffffffffffffffffffffffffff1681526020019081526020015f205f9054906101000a900460ff16905092915050565b61137c61178d565b80600b60016101000a81548160ff02191690831515021790555050565b6113a161178d565b5f73ffffffffffffffffffffffffffffffffffffffff168173ffffffffffffffffffffffffffffffffffffffff1603611411575f6040517f1e4fbdf700000000000000000000000000000000000000000000000000000000815260040161140891906125a6565b60405180910390fd5b61141a81611814565b50565b61142561178d565b80600b5f6101000a81548160ff02191690831515021790555050565b5f7f01ffc9a7000000000000000000000000000000000000000000000000000000007bffffffffffffffffffffffffffffffffffffffffffffffffffffffff1916827bffffffffffffffffffffffffffffffffffffffffffffffffffffffff1916149050919050565b5f5f6114b583611dd3565b90505f73ffffffffffffffffffffffffffffffffffffffff168173ffffffffffffffffffffffffffffffffffffffff160361152757826040517f7e27328900000000000000000000000000000000000000000000000000000000815260040161151e91906126b1565b60405180910390fd5b80915050919050565b5f60045f8381526020019081526020015f205f9054906101000a900473ffffffffffffffffffffffffffffffffffffffff169050919050565b5f33905090565b61157d8383836001611e0c565b505050565b5f5f61158d84611dd3565b90505f73ffffffffffffffffffffffffffffffffffffffff168373ffffffffffffffffffffffffffffffffffffffff16146115ce576115cd818486611fcb565b5b5f73ffffffffffffffffffffffffffffffffffffffff168173ffffffffffffffffffffffffffffffffffffffff16146116595761160d5f855f5f611e0c565b600160035f8373ffffffffffffffffffffffffffffffffffffffff1673ffffffffffffffffffffffffffffffffffffffff1681526020019081526020015f205f82825403925050819055505b5f73ffffffffffffffffffffffffffffffffffffffff168573ffffffffffffffffffffffffffffffffffffffff16146116d857600160035f8773ffffffffffffffffffffffffffffffffffffffff1673ffffffffffffffffffffffffffffffffffffffff1681526020019081526020015f205f82825401925050819055505b8460025f8681526020019081526020015f205f6101000a81548173ffffffffffffffffffffffffffffffffffffffff021916908373ffffffffffffffffffffffffffffffffffffffff160217905550838573ffffffffffffffffffffffffffffffffffffffff168273ffffffffffffffffffffffffffffffffffffffff167fddf252ad1be2c89b69c2b068fc378daa952ba7f163c4a11628f55a4df523b3ef60405160405180910390a4809150509392505050565b611795611569565b73ffffffffffffffffffffffffffffffffffffffff166117b3610d20565b73ffffffffffffffffffffffffffffffffffffffff1614611812576117d6611569565b6040517f118cdaa700000000000000000000000000000000000000000000000000000000815260040161180991906125a6565b60405180910390fd5b565b5f60065f9054906101000a900473ffffffffffffffffffffffffffffffffffffffff1690508160065f6101000a81548173ffffffffffffffffffffffffffffffffffffffff021916908373ffffffffffffffffffffffffffffffffffffffff1602179055508173ffffffffffffffffffffffffffffffffffffffff168173ffffffffffffffffffffffffffffffffffffffff167f8be0079c531659141344cd1fd0a4f28419497f9722a3daafe3b4186f6b6457e060405160405180910390a35050565b6118f0828260405180602001604052805f81525061208e565b5050565b5f73ffffffffffffffffffffffffffffffffffffffff168373ffffffffffffffffffffffffffffffffffffffff1603611964575f6040517fa9fbf51f00000000000000000000000000000000000000000000000000000000815260040161195b91906125a6565b60405180910390fd5b5f73ffffffffffffffffffffffffffffffffffffffff168273ffffffffffffffffffffffffffffffffffffffff16036119d457816040517f5b08ba180000000000000000000000000000000000000000000000000000000081526004016119cb91906125a6565b60405180910390fd5b8060055f8573ffffffffffffffffffffffffffffffffffffffff1673ffffffffffffffffffffffffffffffffffffffff1681526020019081526020015f205f8473ffffffffffffffffffffffffffffffffffffffff1673ffffffffffffffffffffffffffffffffffffffff1681526020019081526020015f205f6101000a81548160ff0219169083151502179055508173ffffffffffffffffffffffffffffffffffffffff168373ffffffffffffffffffffffffffffffffffffffff167f17307eab39ab6107e8899845ad3d59bd9653f200f220920489ca2b5937696c3183604051611ac09190612460565b60405180910390a3505050565b5f8373ffffffffffffffffffffffffffffffffffffffff163b1115611c72578273ffffffffffffffffffffffffffffffffffffffff1663150b7a02868685856040518563ffffffff1660e01b8152600401611b2b9493929190612edd565b6020604051808303815f875af1925050508015611b6657506040513d601f19601f82011682018060405250810190611b639190612f3b565b60015b611be7573d805f8114611b94576040519150601f19603f3d011682016040523d82523d5f602084013e611b99565b606091505b505f815103611bdf57836040517f64a0ae92000000000000000000000000000000000000000000000000000000008152600401611bd691906125a6565b60405180910390fd5b805160208201fd5b63150b7a0260e01b7bffffffffffffffffffffffffffffffffffffffffffffffffffffffff1916817bffffffffffffffffffffffffffffffffffffffffffffffffffffffff191614611c7057836040517f64a0ae92000000000000000000000000000000000000000000000000000000008152600401611c6791906125a6565b60405180910390fd5b505b5050505050565b6060600c8054611c8890612a1c565b80601f0160208091040260200160405190810160405280929190818152602001828054611cb490612a1c565b8015611cff5780601f10611cd657610100808354040283529160200191611cff565b820191905f5260205f20905b815481529060010190602001808311611ce257829003601f168201915b5050505050905090565b60605f6001611d17846120b1565b0190505f8167ffffffffffffffff811115611d3557611d346127e2565b5b6040519080825280601f01601f191660200182016040528015611d675781602001600182028036833780820191505090505b5090505f82602083010190505b600115611dc8578080600190039150507f3031323334353637383961626364656600000000000000000000000000000000600a86061a8153600a8581611dbd57611dbc612d57565b5b0494505f8503611d74575b819350505050919050565b5f60025f8381526020019081526020015f205f9054906101000a900473ffffffffffffffffffffffffffffffffffffffff169050919050565b8080611e4457505f73ffffffffffffffffffffffffffffffffffffffff168273ffffffffffffffffffffffffffffffffffffffff1614155b15611f76575f611e53846114aa565b90505f73ffffffffffffffffffffffffffffffffffffffff168373ffffffffffffffffffffffffffffffffffffffff1614158015611ebd57508273ffffffffffffffffffffffffffffffffffffffff168173ffffffffffffffffffffffffffffffffffffffff1614155b8015611ed05750611ece81846112e6565b155b15611f1257826040517fa9fbf51f000000000000000000000000000000000000000000000000000000008152600401611f0991906125a6565b60405180910390fd5b8115611f7457838573ffffffffffffffffffffffffffffffffffffffff168273ffffffffffffffffffffffffffffffffffffffff167f8c5be1e5ebec7d5bd14f71427d1e84f3dd0314c0f7b2291e5b200ac8c7c3b92560405160405180910390a45b505b8360045f8581526020019081526020015f205f6101000a81548173ffffffffffffffffffffffffffffffffffffffff021916908373ffffffffffffffffffffffffffffffffffffffff16021790555050505050565b611fd6838383612202565b612089575f73ffffffffffffffffffffffffffffffffffffffff168373ffffffffffffffffffffffffffffffffffffffff160361204a57806040517f7e27328900000000000000000000000000000000000000000000000000000000815260040161204191906126b1565b60405180910390fd5b81816040517f177e802f000000000000000000000000000000000000000000000000000000008152600401612080929190612f66565b60405180910390fd5b505050565b61209883836122c2565b6120ac6120a3611569565b5f858585611acd565b505050565b5f5f5f90507a184f03e93ff9f4daa797ed6e38ed64bf6a1f010000000000000000831061210d577a184f03e93ff9f4daa797ed6e38ed64bf6a1f010000000000000000838161210357612102612d57565b5b0492506040810190505b6d04ee2d6d415b85acef8100000000831061214a576d04ee2d6d415b85acef810000000083816121405761213f612d57565b5b0492506020810190505b662386f26fc10000831061217957662386f26fc10000838161216f5761216e612d57565b5b0492506010810190505b6305f5e10083106121a2576305f5e100838161219857612197612d57565b5b0492506008810190505b61271083106121c75761271083816121bd576121bc612d57565b5b0492506004810190505b606483106121ea57606483816121e0576121df612d57565b5b0492506002810190505b600a83106121f9576001810190505b80915050919050565b5f5f73ffffffffffffffffffffffffffffffffffffffff168373ffffffffffffffffffffffffffffffffffffffff16141580156122b957508273ffffffffffffffffffffffffffffffffffffffff168473ffffffffffffffffffffffffffffffffffffffff16148061227a575061227984846112e6565b5b806122b857508273ffffffffffffffffffffffffffffffffffffffff166122a083611530565b73ffffffffffffffffffffffffffffffffffffffff16145b5b90509392505050565b5f73ffffffffffffffffffffffffffffffffffffffff168273ffffffffffffffffffffffffffffffffffffffff1603612332575f6040517f64a0ae9200000000000000000000000000000000000000000000000000000000815260040161232991906125a6565b60405180910390fd5b5f61233e83835f611582565b90505f73ffffffffffffffffffffffffffffffffffffffff168173ffffffffffffffffffffffffffffffffffffffff16146123b0575f6040517f73c6ac6e0000000000000000000000000000000000000000000000000000000081526004016123a791906125a6565b60405180910390fd5b505050565b5f604051905090565b5f5ffd5b5f5ffd5b5f7fffffffff0000000000000000000000000000000000000000000000000000000082169050919050565b6123fa816123c6565b8114612404575f5ffd5b50565b5f81359050612415816123f1565b92915050565b5f602082840312156124305761242f6123be565b5b5f61243d84828501612407565b91505092915050565b5f8115159050919050565b61245a81612446565b82525050565b5f6020820190506124735f830184612451565b92915050565b5f81519050919050565b5f82825260208201905092915050565b8281835e5f83830152505050565b5f601f19601f8301169050919050565b5f6124bb82612479565b6124c58185612483565b93506124d5818560208601612493565b6124de816124a1565b840191505092915050565b5f6020820190508181035f83015261250181846124b1565b905092915050565b5f819050919050565b61251b81612509565b8114612525575f5ffd5b50565b5f8135905061253681612512565b92915050565b5f60208284031215612551576125506123be565b5b5f61255e84828501612528565b91505092915050565b5f73ffffffffffffffffffffffffffffffffffffffff82169050919050565b5f61259082612567565b9050919050565b6125a081612586565b82525050565b5f6020820190506125b95f830184612597565b92915050565b6125c881612586565b81146125d2575f5ffd5b50565b5f813590506125e3816125bf565b92915050565b5f5f604083850312156125ff576125fe6123be565b5b5f61260c858286016125d5565b925050602061261d85828601612528565b9150509250929050565b5f5f5f6060848603121561263e5761263d6123be565b5b5f61264b868287016125d5565b935050602061265c868287016125d5565b925050604061266d86828701612528565b9150509250925092565b5f6020828403121561268c5761268b6123be565b5b5f612699848285016125d5565b91505092915050565b6126ab81612509565b82525050565b5f6020820190506126c45f8301846126a2565b92915050565b5f5ffd5b5f5ffd5b5f5ffd5b5f5f83601f8401126126eb576126ea6126ca565b5b8235905067ffffffffffffffff811115612708576127076126ce565b5b602083019150836020820283011115612724576127236126d2565b5b9250929050565b5f5f60208385031215612741576127406123be565b5b5f83013567ffffffffffffffff81111561275e5761275d6123c2565b5b61276a858286016126d6565b92509250509250929050565b61277f81612446565b8114612789575f5ffd5b50565b5f8135905061279a81612776565b92915050565b5f5f604083850312156127b6576127b56123be565b5b5f6127c3858286016125d5565b92505060206127d48582860161278c565b9150509250929050565b5f5ffd5b7f4e487b71000000000000000000000000000000000000000000000000000000005f52604160045260245ffd5b612818826124a1565b810181811067ffffffffffffffff82111715612837576128366127e2565b5b80604052505050565b5f6128496123b5565b9050612855828261280f565b919050565b5f67ffffffffffffffff821115612874576128736127e2565b5b61287d826124a1565b9050602081019050919050565b828183375f83830152505050565b5f6128aa6128a58461285a565b612840565b9050828152602081018484840111156128c6576128c56127de565b5b6128d184828561288a565b509392505050565b5f82601f8301126128ed576128ec6126ca565b5b81356128fd848260208601612898565b91505092915050565b5f5f5f5f6080858703121561291e5761291d6123be565b5b5f61292b878288016125d5565b945050602061293c878288016125d5565b935050604061294d87828801612528565b925050606085013567ffffffffffffffff81111561296e5761296d6123c2565b5b61297a878288016128d9565b91505092959194509250565b5f5f6040838503121561299c5761299b6123be565b5b5f6129a9858286016125d5565b92505060206129ba858286016125d5565b9150509250929050565b5f602082840312156129d9576129d86123be565b5b5f6129e68482850161278c565b91505092915050565b7f4e487b71000000000000000000000000000000000000000000000000000000005f52602260045260245ffd5b5f6002820490506001821680612a3357607f821691505b602082108103612a4657612a456129ef565b5b50919050565b5f606082019050612a5f5f830186612597565b612a6c60208301856126a2565b612a796040830184612597565b949350505050565b7f4e487b71000000000000000000000000000000000000000000000000000000005f52603260045260245ffd5b7f4d696e74206e6f74206f70656e000000000000000000000000000000000000005f82015250565b5f612ae2600d83612483565b9150612aed82612aae565b602082019050919050565b5f6020820190508181035f830152612b0f81612ad6565b9050919050565b7f4e487b71000000000000000000000000000000000000000000000000000000005f52601160045260245ffd5b5f612b4d82612509565b9150612b5883612509565b9250828201905080821115612b7057612b6f612b16565b5b92915050565b7f45786365656473206d617820737570706c7900000000000000000000000000005f82015250565b5f612baa601283612483565b9150612bb582612b76565b602082019050919050565b5f6020820190508181035f830152612bd781612b9e565b9050919050565b5f612be882612509565b9150612bf383612509565b9250828202612c0181612509565b91508282048414831517612c1857612c17612b16565b5b5092915050565b7f496e73756666696369656e74207061796d656e740000000000000000000000005f82015250565b5f612c53601483612483565b9150612c5e82612c1f565b602082019050919050565b5f6020820190508181035f830152612c8081612c47565b9050919050565b7f45786365656473206d6178207065722077616c6c6574000000000000000000005f82015250565b5f612cbb601683612483565b9150612cc682612c87565b602082019050919050565b5f6020820190508181035f830152612ce881612caf565b9050919050565b7f4e6f742077686974656c697374656400000000000000000000000000000000005f82015250565b5f612d23600f83612483565b9150612d2e82612cef565b602082019050919050565b5f6020820190508181035f830152612d5081612d17565b9050919050565b7f4e487b71000000000000000000000000000000000000000000000000000000005f52601260045260245ffd5b5f612d8e82612509565b9150612d9983612509565b925082612da957612da8612d57565b5b828204905092915050565b5f612dbe82612509565b9150612dc983612509565b9250828203905081811115612de157612de0612b16565b5b92915050565b5f612df182612509565b91507fffffffffffffffffffffffffffffffffffffffffffffffffffffffffffffffff8203612e2357612e22612b16565b5b600182019050919050565b5f81905092915050565b5f612e4282612479565b612e4c8185612e2e565b9350612e5c818560208601612493565b80840191505092915050565b5f612e738285612e38565b9150612e7f8284612e38565b91508190509392505050565b5f81519050919050565b5f82825260208201905092915050565b5f612eaf82612e8b565b612eb98185612e95565b9350612ec9818560208601612493565b612ed2816124a1565b840191505092915050565b5f608082019050612ef05f830187612597565b612efd6020830186612597565b612f0a60408301856126a2565b8181036060830152612f1c8184612ea5565b905095945050505050565b5f81519050612f35816123f1565b92915050565b5f60208284031215612f5057612f4f6123be565b5b5f612f5d84828501612f27565b91505092915050565b5f604082019050612f795f830185612597565b612f8660208301846126a2565b939250505056fea264697066735822122071b5ed8ee02d64746499b38602586cfb99de9b0507c5dd4ad6e1fa82a429d0df64736f6c634300081c0033",
  "linkReferences": {},
  "deployedLinkReferences": {},
  "immutableReferences": {},
  "inputSourceName": "project/contracts/SigilNFT.sol",
  "buildInfoId": "solc-0_8_28-ce617115b871fa89e586a558e69854878c63d175"
}