{
  "_format": "hh3-artifact-1",
  "contractName": "SigilNFT",
  "sourceName": "contracts/SigilNFT.sol",
  "abi": [
    {
      "inputs": [
        {
          "internalType": "string",
          "name": "_name",
          "type": "string"
        },
        {
          "internalType": "string",
          "name": "_symbol",
          "type": "string"
        },
        {
          "internalType": "uint256",
          "name": "_mintPrice",
          "type": "uint256"
        },
        {
          "internalType": "uint256",
          "name": "_maxSupply",
          "type": "uint256"
        },
        {
          "internalType": "uint256",
          "name": "_maxPerWallet",
          "type": "uint256"
        },
        {
          "internalType": "string",
          "name": "_baseTokenURI",
          "type": "string"
        }
      ],
      "stateMutability": "nonpayable",
      "type": "constructor"
    },
    {
      "inputs": [
        {
          "internalType": "address",
          "name": "sender",
          "type": "address"
        },
        {
          "internalType": "uint256",
          "name": "tokenId",
          "type": "uint256"
        },
        {
          "internalType": "address",
          "name": "owner",
          "type": "address"
        }
      ],
      "name": "ERC721IncorrectOwner",
      "type": "error"
    },
    {
      "inputs": [
        {
          "internalType": "address",
          "name": "operator",
          "type": "address"
        },
        {
          "internalType": "uint256",
          "name": "tokenId",
          "type": "uint256"
        }
      ],
      "name": "ERC721InsufficientApproval",
      "type": "error"
    },
    {
      "inputs": [
        {
          "internalType": "address",
          "name": "approver",
          "type": "address"
        }
      ],
      "name": "ERC721InvalidApprover",
      "type": "error"
    },
    {
      "inputs": [
        {
          "internalType": "address",
          "name": "operator",
          "type": "address"
        }
      ],
      "name": "ERC721InvalidOperator",
      "type": "error"
    },
    {
      "inputs": [
        {
          "internalType": "address",
          "name": "owner",
          "type": "address"
        }
      ],
      "name": "ERC721InvalidOwner",
      "type": "error"
    },
    {
      "inputs": [
        {
          "internalType": "address",
          "name": "receiver",
          "type": "address"
        }
      ],
      "name": "ERC721InvalidReceiver",
      "type": "error"
    },
    {
      "inputs": [
        {
          "internalType": "address",
          "name": "sender",
          "type": "address"
        }
      ],
      "name": "ERC721InvalidSender",
      "type": "error"
    },
    {
      "inputs": [
        {
          "internalType": "uint256",
          "name": "tokenId",
          "type": "uint256"
        }
      ],
      "name": "ERC721NonexistentToken",
      "type": "error"
    },
    {
      "inputs": [
        {
          "internalType": "address",
          "name": "owner",
          "type": "address"
        }
      ],
      "name": "OwnableInvalidOwner",
      "type": "error"
    },
    {
      "inputs": [
        {
          "internalType": "address",
          "name": "account",
          "type": "address"
        }
      ],
      "name": "OwnableUnauthorizedAccount",
      "type": "error"
    },
    {
      "anonymous": false,
      "inputs": [
        {
          "indexed": true,
          "internalType": "address",
          "name": "owner",
          "type": "address"
        },
        {
          "indexed": true,
          "internalType": "address",
          "name": "approved",
          "type": "address"
        },
        {
          "indexed": true,
          "internalType": "uint256",
          "name": "tokenId",
          "type": "uint256"
        }
      ],
      "name": "Approval",
      "type": "event"
    },
    {
      "anonymous": false,
      "inputs": [
        {
          "indexed": true,
          "internalType": "address",
          "name": "owner",
          "type": "address"
        },
        {
          "indexed": true,
          "internalType": "address",
          "name": "operator",
          "type": "address"
        },
        {
          "indexed": false,
          "internalType": "bool",
          "name": "approved",
          "type": "bool"
        }
      ],
      "name": "ApprovalForAll",
      "type": "event"
    },
    {
      "anonymous": false,
      "inputs": [
        {
          "indexed": true,
          "internalType": "address",
          "name": "previousOwner",
          "type": "address"
        },
        {
          "indexed": true,
          "internalType": "address",
          "name": "newOwner",
          "type": "address"
        }
      ],
      "name": "OwnershipTransferred",
      "type": "event"
    },
    {
      "anonymous": false,
      "inputs": [
        {
          "indexed": true,
          "internalType": "address",
          "name": "from",
          "type": "address"
        },
        {
          "indexed": true,
          "internalType": "address",
          "name": "to",
          "type": "address"
        },
        {
          "indexed": true,
          "internalType": "uint256",
          "name": "tokenId",
          "type": "uint256"
        }
      ],
      "name": "Transfer",
      "type": "event"
    },
    {
      "inputs": [],
      "name": "PROTOCOL_FEE_BPS",
      "outputs": [
        {
          "internalType": "uint256",
          "name": "",
          "type": "uint256"
        }
      ],
      "stateMutability": "view",
      "type": "function"
    },
    {
      "inputs": [],
      "name": "SIGIL_TREASURY",
      "outputs": [
        {
          "internalType": "address",
          "name": "",
          "type": "address"
        }
      ],
      "stateMutability": "view",
      "type": "function"
    },
    {
      "inputs": [
        {
          "internalType": "address",
          "name": "to",
          "type": "address"
        },
        {
          "internalType": "uint256",
          "name": "tokenId",
          "type": "uint256"
        }
      ],
      "name": "approve",
      "outputs": [],
      "stateMutability": "nonpayable",
      "type": "function"
    },
    {
      "inputs": [
        {
          "internalType": "address",
          "name": "owner",
          "type": "address"
        }
      ],
      "name": "balanceOf",
      "outputs": [
        {
          "internalType": "uint256",
          "name": "",
          "type": "uint256"
        }
      ],
      "stateMutability": "view",
      "type": "function"
    },
    {
      "inputs": [],
      "name": "baseTokenURI",
      "outputs": [
        {
          "internalType": "string",
          "name": "",
          "type": "string"
        }
      ],
      "stateMutability": "view",
      "type": "function"
    },
    {
      "inputs": [
        {
          "internalType": "uint256",
          "name": "tokenId",
          "type": "uint256"
        }
      ],
      "name": "getApproved",
      "outputs": [
        {
          "internalType": "address",
          "name": "",
          "type": "address"
        }
      ],
      "stateMutability": "view",
      "type": "function"
    },
    {
      "inputs": [
        {
          "internalType": "address",
          "name": "owner",
          "type": "address"
        },
        {
          "internalType": "address",
          "name": "operator",
          "type": "address"
        }
      ],
      "name": "isApprovedForAll",
      "outputs": [
        {
          "internalType": "bool",
          "name": "",
          "type": "bool"
        }
      ],
      "stateMutability": "view",
      "type": "function"
    },
    {
      "inputs": [],
      "name": "maxPerWallet",
      "outputs": [
        {
          "internalType": "uint256",
          "name": "",
          "type": "uint256"
        }
      ],
      "stateMutability": "view",
      "type": "function"
    },
    {
      "inputs": [],
      "name": "maxSupply",
      "outputs": [
        {
          "internalType": "uint256",
          "name": "",
          "type": "uint256"
        }
      ],
      "stateMutability": "view",
      "type": "function"
    },
    {
      "inputs": [
        {
          "internalType": "uint256",
          "name": "quantity",
          "type": "uint256"
        }
      ],
      "name": "mint",
      "outputs": [],
      "stateMutability": "payable",
      "type": "function"
    },
    {
      "inputs": [],
      "name": "mintOpen",
      "outputs": [
        {
          "internalType": "bool",
          "name": "",
          "type": "bool"
        }
      ],
      "stateMutability": "view",
      "type": "function"
    },
    {
      "inputs": [],
      "name": "mintPrice",
      "outputs": [
        {
          "internalType": "uint256",
          "name": "",
          "type": "uint256"
        }
      ],
      "stateMutability": "view",
      "type": "function"
    },
    {
      "inputs": [
        {
          "internalType": "address",
          "name": "",
          "type": "address"
        }
      ],
      "name": "mintedPerWallet",
      "outputs": [
        {
          "internalType": "uint256",
          "name": "",
          "type": "uint256"
        }
      ],
      "stateMutability": "view",
      "type": "function"
    },
    {
      "inputs": [],
      "name": "name",
      "outputs": [
        {
          "internalType": "string",
          "name": "",
          "type": "string"
        }
      ],
      "stateMutability": "view",
      "type": "function"
    },
    {
      "inputs": [],
      "name": "owner",
      "outputs": [
        {
          "internalType": "address",
          "name": "",
          "type": "address"
        }
      ],
      "stateMutability": "view",
      "type": "function"
    },
    {
      "inputs": [
        {
          "internalType": "uint256",
          "name": "tokenId",
          "type": "uint256"
        }
      ],
      "name": "ownerOf",
      "outputs": [
        {
          "internalType": "address",
          "name": "",
          "type": "address"
        }
      ],
      "stateMutability": "view",
      "type": "function"
    },
    {
      "inputs": [],
      "name": "renounceOwnership",
      "outputs": [],
      "stateMutability": "nonpayable",
      "type": "function"
    },
    {
      "inputs": [
        {
          "internalType": "address",
          "name": "from",
          "type": "address"
        },
        {
          "internalType": "address",
          "name": "to",
          "type": "address"
        },
        {
          "internalType": "uint256",
          "name": "tokenId",
          "type": "uint256"
        }
      ],
      "name": "safeTransferFrom",
      "outputs": [],
      "stateMutability": "nonpayable",
      "type": "function"
    },
    {
      "inputs": [
        {
          "internalType": "address",
          "name": "from",
          "type": "address"
        },
        {
          "internalType": "address",
          "name": "to",
          "type": "address"
        },
        {
          "internalType": "uint256",
          "name": "tokenId",
          "type": "uint256"
        },
        {
          "internalType": "bytes",
          "name": "data",
          "type": "bytes"
        }
      ],
      "name": "safeTransferFrom",
      "outputs": [],
      "stateMutability": "nonpayable",
      "type": "function"
    },
    {
      "inputs": [
        {
          "internalType": "address",
          "name": "operator",
          "type": "address"
        },
        {
          "internalType": "bool",
          "name": "approved",
          "type": "bool"
        }
      ],
      "name": "setApprovalForAll",
      "outputs": [],
      "stateMutability": "nonpayable",
      "type": "function"
    },
    {
      "inputs": [
        {
          "internalType": "bool",
          "name": "_open",
          "type": "bool"
        }
      ],
      "name": "setMintOpen",
      "outputs": [],
      "stateMutability": "nonpayable",
      "type": "function"
    },
    {
      "inputs": [
        {
          "internalType": "bytes4",
          "name": "interfaceId",
          "type": "bytes4"
        }
      ],
      "name": "supportsInterface",
      "outputs": [
        {
          "internalType": "bool",
          "name": "",
          "type": "bool"
        }
      ],
      "stateMutability": "view",
      "type": "function"
    },
    {
      "inputs": [],
      "name": "symbol",
      "outputs": [
        {
          "internalType": "string",
          "name": "",
          "type": "string"
        }
      ],
      "stateMutability": "view",
      "type": "function"
    },
    {
      "inputs": [
        {
          "internalType": "uint256",
          "name": "tokenId",
          "type": "uint256"
        }
      ],
      "name": "tokenURI",
      "outputs": [
        {
          "internalType": "string",
          "name": "",
          "type": "string"
        }
      ],
      "stateMutability": "view",
      "type": "function"
    },
    {
      "inputs": [],
      "name": "totalMinted",
      "outputs": [
        {
          "internalType": "uint256",
          "name": "",
          "type": "uint256"
        }
      ],
      "stateMutability": "view",
      "type": "function"
    },
    {
      "inputs": [
        {
          "internalType": "address",
          "name": "from",
          "type": "address"
        },
        {
          "internalType": "address",
          "name": "to",
          "type": "address"
        },
        {
          "internalType": "uint256",
          "name": "tokenId",
          "type": "uint256"
        }
      ],
      "name": "transferFrom",
      "outputs": [],
      "stateMutability": "nonpayable",
      "type": "function"
    },
    {
      "inputs": [
        {
          "internalType": "address",
          "name": "newOwner",
          "type": "address"
        }
      ],
      "name": "transferOwnership",
      "outputs": [],
      "stateMutability": "nonpayable",
      "type": "function"
    },
    {
      "inputs": [],
      "name": "withdraw",
      "outputs": [],
      "stateMutability": "nonpayable",
      "type": "function"
    }
  ],
  "bytecode": "0x608060405234801561000f575f5ffd5b506040516132ab3803806132ab83398181016040528101906100319190610361565b338686815f90816100429190610645565b5080600190816100529190610645565b5050505f73ffffffffffffffffffffffffffffffffffffffff168173ffffffffffffffffffffffffffffffffffffffff16036100c5575f6040517f1e4fbdf70000000000000000000000000000000000000000000000000000000081526004016100bc9190610753565b60405180910390fd5b6100d48161011e60201b60201c565b50836007819055508260088190555081600a8190555080600c90816100f99190610645565b505f600b5f6101000a81548160ff02191690831515021790555050505050505061076c565b5f60065f9054906101000a900473ffffffffffffffffffffffffffffffffffffffff1690508160065f6101000a81548173ffffffffffffffffffffffffffffffffffffffff021916908373ffffffffffffffffffffffffffffffffffffffff1602179055508173ffffffffffffffffffffffffffffffffffffffff168173ffffffffffffffffffffffffffffffffffffffff167f8be0079c531659141344cd1fd0a4f28419497f9722a3daafe3b4186f6b6457e060405160405180910390a35050565b5f604051905090565b5f5ffd5b5f5ffd5b5f5ffd5b5f5ffd5b5f601f19601f8301169050919050565b7f4e487b71000000000000000000000000000000000000000000000000000000005f52604160045260245ffd5b610240826101fa565b810181811067ffffffffffffffff8211171561025f5761025e61020a565b5b80604052505050565b5f6102716101e1565b905061027d8282610237565b919050565b5f67ffffffffffffffff82111561029c5761029b61020a565b5b6102a5826101fa565b9050602081019050919050565b8281835e5f83830152505050565b5f6102d26102cd84610282565b610268565b9050828152602081018484840111156102ee576102ed6101f6565b5b6102f98482856102b2565b509392505050565b5f82601f830112610315576103146101f2565b5b81516103258482602086016102c0565b91505092915050565b5f819050919050565b6103408161032e565b811461034a575f5ffd5b50565b5f8151905061035b81610337565b92915050565b5f5f5f5f5f5f60c0878903121561037b5761037a6101ea565b5b5f87015167ffffffffffffffff811115610398576103976101ee565b5b6103a489828a01610301565b965050602087015167ffffffffffffffff8111156103c5576103c46101ee565b5b6103d189828a01610301565b95505060406103e289828a0161034d565b94505060606103f389828a0161034d565b935050608061040489828a0161034d565b92505060a087015167ffffffffffffffff811115610425576104246101ee565b5b61043189828a01610301565b9150509295509295509295565b5f81519050919050565b7f4e487b71000000000000000000000000000000000000000000000000000000005f52602260045260245ffd5b5f600282049050600182168061048c57607f821691505b60208210810361049f5761049e610448565b5b50919050565b5f819050815f5260205f209050919050565b5f6020601f8301049050919050565b5f82821b905092915050565b5f600883026105017fffffffffffffffffffffffffffffffffffffffffffffffffffffffffffffffff826104c6565b61050b86836104c6565b95508019841693508086168417925050509392505050565b5f819050919050565b5f61054661054161053c8461032e565b610523565b61032e565b9050919050565b5f819050919050565b61055f8361052c565b61057361056b8261054d565b8484546104d2565b825550505050565b5f5f905090565b61058a61057b565b610595818484610556565b505050565b5b818110156105b8576105ad5f82610582565b60018101905061059b565b5050565b601f8211156105fd576105ce816104a5565b6105d7846104b7565b810160208510156105e6578190505b6105fa6105f2856104b7565b83018261059a565b50505b505050565b5f82821c905092915050565b5f61061d5f1984600802610602565b1980831691505092915050565b5f610635838361060e565b9150826002028217905092915050565b61064e8261043e565b67ffffffffffffffff8111156106675761066661020a565b5b6106718254610475565b61067c8282856105bc565b5f60209050601f8311600181146106ad575f841561069b578287015190505b6106a5858261062a565b86555061070c565b601f1984166106bb866104a5565b5f5b828110156106e2578489015182556001820191506020850194506020810190506106bd565b868310156106ff57848901516106fb601f89168261060e565b8355505b6001600288020188555050505b505050505050565b5f73ffffffffffffffffffffffffffffffffffffffff82169050919050565b5f61073d82610714565b9050919050565b61074d81610733565b82525050565b5f6020820190506107665f830184610744565b92915050565b612b32806107795f395ff3fe6080604052600436106101b6575f3560e01c80638da5cb5b116100eb578063c87b56dd11610089578063dd18e7d411610063578063dd18e7d4146105d6578063e985e9c514610600578063f2fde38b1461063c578063f8004d3114610664576101b6565b8063c87b56dd14610546578063d547cfb714610582578063d5abeb01146105ac576101b6565b8063a22cb465116100c5578063a22cb465146104a2578063a2309ff8146104ca578063b88d4fde146104f4578063be3782281461051c576101b6565b80638da5cb5b1461043257806395d89b411461045c578063a0712d6814610486576101b6565b80633ccfd60b116101585780636352211e116101325780636352211e1461037a5780636817c76c146103b657806370a08231146103e0578063715018a61461041c576101b6565b80633ccfd60b1461031257806342842e0e14610328578063453c231014610350576101b6565b8063095ea7b311610194578063095ea7b31461025c57806323b872dd1461028457806324bbd049146102ac5780633a602b4d146102d6576101b6565b806301ffc9a7146101ba57806306fdde03146101f6578063081812fc14610220575b5f5ffd5b3480156101c5575f5ffd5b506101e060048036038101906101db91906120c7565b61068c565b6040516101ed919061210c565b60405180910390f35b348015610201575f5ffd5b5061020a61076d565b6040516102179190612195565b60405180910390f35b34801561022b575f5ffd5b50610246600480360381019061024191906121e8565b6107fc565b6040516102539190612252565b60405180910390f35b348015610267575f5ffd5b50610282600480360381019061027d9190612295565b610817565b005b34801561028f575f5ffd5b506102aa60048036038101906102a591906122d3565b61082d565b005b3480156102b7575f5ffd5b506102c061092c565b6040516102cd919061210c565b60405180910390f35b3480156102e1575f5ffd5b506102fc60048036038101906102f79190612323565b61093e565b604051610309919061235d565b60405180910390f35b34801561031d575f5ffd5b50610326610953565b005b348015610333575f5ffd5b5061034e600480360381019061034991906122d3565b6109a8565b005b34801561035b575f5ffd5b506103646109c7565b604051610371919061235d565b60405180910390f35b348015610385575f5ffd5b506103a0600480360381019061039b91906121e8565b6109cd565b6040516103ad9190612252565b60405180910390f35b3480156103c1575f5ffd5b506103ca6109de565b6040516103d7919061235d565b60405180910390f35b3480156103eb575f5ffd5b5061040660048036038101906104019190612323565b6109e4565b604051610413919061235d565b60405180910390f35b348015610427575f5ffd5b50610430610a9a565b005b34801561043d575f5ffd5b50610446610aad565b6040516104539190612252565b60405180910390f35b348015610467575f5ffd5b50610470610ad5565b60405161047d9190612195565b60405180910390f35b6104a0600480360381019061049b91906121e8565b610b65565b005b3480156104ad575f5ffd5b506104c860048036038101906104c391906123a0565b610e61565b005b3480156104d5575f5ffd5b506104de610e77565b6040516104eb919061235d565b60405180910390f35b3480156104ff575f5ffd5b5061051a6004803603810190610515919061250a565b610e7d565b005b348015610527575f5ffd5b50610530610ea2565b60405161053d919061235d565b60405180910390f35b348015610551575f5ffd5b5061056c600480360381019061056791906121e8565b610ea7565b6040516105799190612195565b60405180910390f35b34801561058d575f5ffd5b50610596610f0d565b6040516105a39190612195565b60405180910390f35b3480156105b7575f5ffd5b506105c0610f99565b6040516105cd919061235d565b60405180910390f35b3480156105e1575f5ffd5b506105ea610f9f565b6040516105f79190612252565b60405180910390f35b34801561060b575f5ffd5b506106266004803603810190610621919061258a565b610fb7565b604051610633919061210c565b60405180910390f35b348015610647575f5ffd5b50610662600480360381019061065d9190612323565b611045565b005b34801561066f575f5ffd5b5061068a600480360381019061068591906125c8565b6110c9565b005b5f7f80ac58cd000000000000000000000000000000000000000000000000000000007bffffffffffffffffffffffffffffffffffffffffffffffffffffffff1916827bffffffffffffffffffffffffffffffffffffffffffffffffffffffff1916148061075657507f5b5e139f000000000000000000000000000000000000000000000000000000007bffffffffffffffffffffffffffffffffffffffffffffffffffffffff1916827bffffffffffffffffffffffffffffffffffffffffffffffffffffffff1916145b806107665750610765826110ed565b5b9050919050565b60605f805461077b90612620565b80601f01602080910402602001604051908101604052809291908181526020018280546107a790612620565b80156107f25780601f106107c9576101008083540402835291602001916107f2565b820191905f5260205f20905b8154815290600101906020018083116107d557829003601f168201915b5050505050905090565b5f61080682611156565b50610810826111dc565b9050919050565b6108298282610824611215565b61121c565b5050565b5f73ffffffffffffffffffffffffffffffffffffffff168273ffffffffffffffffffffffffffffffffffffffff160361089d575f6040517f64a0ae920000000000000000000000000000000000000000000000000000000081526004016108949190612252565b60405180910390fd5b5f6108b083836108ab611215565b61122e565b90508373ffffffffffffffffffffffffffffffffffffffff168173ffffffffffffffffffffffffffffffffffffffff1614610926578382826040517f64283d7b00000000000000000000000000000000000000000000000000000000815260040161091d93929190612650565b60405180910390fd5b50505050565b600b5f9054906101000a900460ff1681565b600d602052805f5260405f205f915090505481565b61095b611439565b610963610aad565b73ffffffffffffffffffffffffffffffffffffffff166108fc4790811502906040515f60405180830381858888f193505050501580156109a5573d5f5f3e3d5ffd5b50565b6109c283838360405180602001604052805f815250610e7d565b505050565b600a5481565b5f6109d782611156565b9050919050565b60075481565b5f5f73ffffffffffffffffffffffffffffffffffffffff168273ffffffffffffffffffffffffffffffffffffffff1603610a55575f6040517f89c62b64000000000000000000000000000000000000000000000000000000008152600401610a4c9190612252565b60405180910390fd5b60035f8373ffffffffffffffffffffffffffffffffffffffff1673ffffffffffffffffffffffffffffffffffffffff1681526020019081526020015f20549050919050565b610aa2611439565b610aab5f6114c0565b565b5f60065f9054906101000a900473ffffffffffffffffffffffffffffffffffffffff16905090565b606060018054610ae490612620565b80601f0160208091040260200160405190810160405280929190818152602001828054610b1090612620565b8015610b5b5780601f10610b3257610100808354040283529160200191610b5b565b820191905f5260205f20905b815481529060010190602001808311610b3e57829003601f168201915b5050505050905090565b600b5f9054906101000a900460ff16610bb3576040517f08c379a0000000000000000000000000000000000000000000000000000000008152600401610baa906126cf565b60405180910390fd5b60085481600954610bc4919061271a565b1115610c05576040517f08c379a0000000000000000000000000000000000000000000000000000000008152600401610bfc90612797565b60405180910390fd5b80600754610c1391906127b5565b341015610c55576040517f08c379a0000000000000000000000000000000000000000000000000000000008152600401610c4c90612840565b60405180910390fd5b600a5481600d5f3373ffffffffffffffffffffffffffffffffffffffff1673ffffffffffffffffffffffffffffffffffffffff1681526020019081526020015f2054610ca1919061271a565b1115610ce2576040517f08c379a0000000000000000000000000000000000000000000000000000000008152600401610cd9906128a8565b60405180910390fd5b5f81600754610cf191906127b5565b90505f612710600a83610d0491906127b5565b610d0e91906128f3565b90505f8183610d1d9190612923565b90505f821115610d805773b8922f9591b36f82a671ef38c54c60b1396f59c873ffffffffffffffffffffffffffffffffffffffff166108fc8390811502906040515f60405180830381858888f19350505050158015610d7e573d5f5f3e3d5ffd5b505b610d88610aad565b73ffffffffffffffffffffffffffffffffffffffff166108fc8290811502906040515f60405180830381858888f19350505050158015610dca573d5f5f3e3d5ffd5b505f5f90505b84811015610e5a5760095f815480929190610dea90612956565b9190505550610dfb33600954611583565b600d5f3373ffffffffffffffffffffffffffffffffffffffff1673ffffffffffffffffffffffffffffffffffffffff1681526020019081526020015f205f815480929190610e4890612956565b91905055508080600101915050610dd0565b5050505050565b610e73610e6c611215565b83836115a0565b5050565b60095481565b610e8884848461082d565b610e9c610e93611215565b85858585611779565b50505050565b600a81565b6060610eb282611156565b505f610ebc611925565b90505f815111610eda5760405180602001604052805f815250610f05565b80610ee4846119b5565b604051602001610ef59291906129d7565b6040516020818303038152906040525b915050919050565b600c8054610f1a90612620565b80601f0160208091040260200160405190810160405280929190818152602001828054610f4690612620565b8015610f915780601f10610f6857610100808354040283529160200191610f91565b820191905f5260205f20905b815481529060010190602001808311610f7457829003601f168201915b505050505081565b60085481565b73b8922f9591b36f82a671ef38c54c60b1396f59c881565b5f60055f8473ffffffffffffffffffffffffffffffffffffffff1673ffffffffffffffffffffffffffffffffffffffff1681526020019081526020015f205f8373ffffffffffffffffffffffffffffffffffffffff1673ffffffffffffffffffffffffffffffffffffffff1681526020019081526020015f205f9054906101000a900460ff16905092915050565b61104d611439565b5f73ffffffffffffffffffffffffffffffffffffffff168173ffffffffffffffffffffffffffffffffffffffff16036110bd575f6040517f1e4fbdf70000000000000000000000000000000000000000000000000000000081526004016110b49190612252565b60405180910390fd5b6110c6816114c0565b50565b6110d1611439565b80600b5f6101000a81548160ff02191690831515021790555050565b5f7f01ffc9a7000000000000000000000000000000000000000000000000000000007bffffffffffffffffffffffffffffffffffffffffffffffffffffffff1916827bffffffffffffffffffffffffffffffffffffffffffffffffffffffff1916149050919050565b5f5f61116183611a7f565b90505f73ffffffffffffffffffffffffffffffffffffffff168173ffffffffffffffffffffffffffffffffffffffff16036111d357826040517f7e2732890000000000000000000000000000000000000000000000000000000081526004016111ca919061235d565b60405180910390fd5b80915050919050565b5f60045f8381526020019081526020015f205f9054906101000a900473ffffffffffffffffffffffffffffffffffffffff169050919050565b5f33905090565b6112298383836001611ab8565b505050565b5f5f61123984611a7f565b90505f73ffffffffffffffffffffffffffffffffffffffff168373ffffffffffffffffffffffffffffffffffffffff161461127a57611279818486611c77565b5b5f73ffffffffffffffffffffffffffffffffffffffff168173ffffffffffffffffffffffffffffffffffffffff1614611305576112b95f855f5f611ab8565b600160035f8373ffffffffffffffffffffffffffffffffffffffff1673ffffffffffffffffffffffffffffffffffffffff1681526020019081526020015f205f82825403925050819055505b5f73ffffffffffffffffffffffffffffffffffffffff168573ffffffffffffffffffffffffffffffffffffffff161461138457600160035f8773ffffffffffffffffffffffffffffffffffffffff1673ffffffffffffffffffffffffffffffffffffffff1681526020019081526020015f205f82825401925050819055505b8460025f8681526020019081526020015f205f6101000a81548173ffffffffffffffffffffffffffffffffffffffff021916908373ffffffffffffffffffffffffffffffffffffffff160217905550838573ffffffffffffffffffffffffffffffffffffffff168273ffffffffffffffffffffffffffffffffffffffff167fddf252ad1be2c89b69c2b068fc378daa952ba7f163c4a11628f55a4df523b3ef60405160405180910390a4809150509392505050565b611441611215565b73ffffffffffffffffffffffffffffffffffffffff1661145f610aad565b73ffffffffffffffffffffffffffffffffffffffff16146114be57611482611215565b6040517f118cdaa70000000000000000000000000000000000000000000000000000000081526004016114b59190612252565b60405180910390fd5b565b5f60065f9054906101000a900473ffffffffffffffffffffffffffffffffffffffff1690508160065f6101000a81548173ffffffffffffffffffffffffffffffffffffffff021916908373ffffffffffffffffffffffffffffffffffffffff1602179055508173ffffffffffffffffffffffffffffffffffffffff168173ffffffffffffffffffffffffffffffffffffffff167f8be0079c531659141344cd1fd0a4f28419497f9722a3daafe3b4186f6b6457e060405160405180910390a35050565b61159c828260405180602001604052805f815250611d3a565b5050565b5f73ffffffffffffffffffffffffffffffffffffffff168373ffffffffffffffffffffffffffffffffffffffff1603611610575f6040517fa9fbf51f0000000000000000000000000000000000000000000000000000000081526004016116079190612252565b60405180910390fd5b5f73ffffffffffffffffffffffffffffffffffffffff168273ffffffffffffffffffffffffffffffffffffffff160361168057816040517f5b08ba180000000000000000000000000000000000000000000000000000000081526004016116779190612252565b60405180910390fd5b8060055f8573ffffffffffffffffffffffffffffffffffffffff1673ffffffffffffffffffffffffffffffffffffffff1681526020019081526020015f205f8473ffffffffffffffffffffffffffffffffffffffff1673ffffffffffffffffffffffffffffffffffffffff1681526020019081526020015f205f6101000a81548160ff0219169083151502179055508173ffffffffffffffffffffffffffffffffffffffff168373ffffffffffffffffffffffffffffffffffffffff167f17307eab39ab6107e8899845ad3d59bd9653f200f220920489ca2b5937696c318360405161176c919061210c565b60405180910390a3505050565b5f8373ffffffffffffffffffffffffffffffffffffffff163b111561191e578273ffffffffffffffffffffffffffffffffffffffff1663150b7a02868685856040518563ffffffff1660e01b81526004016117d79493929190612a4c565b6020604051808303815f875af192505050801561181257506040513d601f19601f8201168201806040525081019061180f9190612aaa565b60015b611893573d805f8114611840576040519150601f19603f3d011682016040523d82523d5f602084013e611845565b606091505b505f81510361188b57836040517f64a0ae920000000000000000000000000000000000000000000000000000000081526004016118829190612252565b60405180910390fd5b805160208201fd5b63150b7a0260e01b7bffffffffffffffffffffffffffffffffffffffffffffffffffffffff1916817bffffffffffffffffffffffffffffffffffffffffffffffffffffffff19161461191c57836040517f64a0ae920000000000000000000000000000000000000000000000000000000081526004016119139190612252565b60405180910390fd5b505b5050505050565b6060600c805461193490612620565b80601f016020809104026020016040519081016040528092919081815260200182805461196090612620565b80156119ab5780601f10611982576101008083540402835291602001916119ab565b820191905f5260205f20905b81548152906001019060200180831161198e57829003601f168201915b5050505050905090565b60605f60016119c384611d5d565b0190505f8167ffffffffffffffff8111156119e1576119e06123e6565b5b6040519080825280601f01601f191660200182016040528015611a135781602001600182028036833780820191505090505b5090505f82602083010190505b600115611a74578080600190039150507f3031323334353637383961626364656600000000000000000000000000000000600a86061a8153600a8581611a6957611a686128c6565b5b0494505f8503611a20575b819350505050919050565b5f60025f8381526020019081526020015f205f9054906101000a900473ffffffffffffffffffffffffffffffffffffffff169050919050565b8080611af057505f73ffffffffffffffffffffffffffffffffffffffff168273ffffffffffffffffffffffffffffffffffffffff1614155b15611c22575f611aff84611156565b90505f73ffffffffffffffffffffffffffffffffffffffff168373ffffffffffffffffffffffffffffffffffffffff1614158015611b6957508273ffffffffffffffffffffffffffffffffffffffff168173ffffffffffffffffffffffffffffffffffffffff1614155b8015611b7c5750611b7a8184610fb7565b155b15611bbe57826040517fa9fbf51f000000000000000000000000000000000000000000000000000000008152600401611bb59190612252565b60405180910390fd5b8115611c2057838573ffffffffffffffffffffffffffffffffffffffff168273ffffffffffffffffffffffffffffffffffffffff167f8c5be1e5ebec7d5bd14f71427d1e84f3dd0314c0f7b2291e5b200ac8c7c3b92560405160405180910390a45b505b8360045f8581526020019081526020015f205f6101000a81548173ffffffffffffffffffffffffffffffffffffffff021916908373ffffffffffffffffffffffffffffffffffffffff16021790555050505050565b611c82838383611eae565b611d35575f73ffffffffffffffffffffffffffffffffffffffff168373ffffffffffffffffffffffffffffffffffffffff1603611cf657806040517f7e273289000000000000000000000000000000000000000000000000000000008152600401611ced919061235d565b60405180910390fd5b81816040517f177e802f000000000000000000000000000000000000000000000000000000008152600401611d2c929190612ad5565b60405180910390fd5b505050565b611d448383611f6e565b611d58611d4f611215565b5f858585611779565b505050565b5f5f5f90507a184f03e93ff9f4daa797ed6e38ed64bf6a1f0100000000000000008310611db9577a184f03e93ff9f4daa797ed6e38ed64bf6a1f0100000000000000008381611daf57611dae6128c6565b5b0492506040810190505b6d04ee2d6d415b85acef81000000008310611df6576d04ee2d6d415b85acef81000000008381611dec57611deb6128c6565b5b0492506020810190505b662386f26fc100008310611e2557662386f26fc100008381611e1b57611e1a6128c6565b5b0492506010810190505b6305f5e1008310611e4e576305f5e1008381611e4457611e436128c6565b5b0492506008810190505b6127108310611e73576127108381611e6957611e686128c6565b5b0492506004810190505b60648310611e965760648381611e8c57611e8b6128c6565b5b0492506002810190505b600a8310611ea5576001810190505b80915050919050565b5f5f73ffffffffffffffffffffffffffffffffffffffff168373ffffffffffffffffffffffffffffffffffffffff1614158015611f6557508273ffffffffffffffffffffffffffffffffffffffff168473ffffffffffffffffffffffffffffffffffffffff161480611f265750611f258484610fb7565b5b80611f6457508273ffffffffffffffffffffffffffffffffffffffff16611f4c836111dc565b73ffffffffffffffffffffffffffffffffffffffff16145b5b90509392505050565b5f73ffffffffffffffffffffffffffffffffffffffff168273ffffffffffffffffffffffffffffffffffffffff1603611fde575f6040517f64a0ae92000000000000000000000000000000000000000000000000000000008152600401611fd59190612252565b60405180910390fd5b5f611fea83835f61122e565b90505f73ffffffffffffffffffffffffffffffffffffffff168173ffffffffffffffffffffffffffffffffffffffff161461205c575f6040517f73c6ac6e0000000000000000000000000000000000000000000000000000000081526004016120539190612252565b60405180910390fd5b505050565b5f604051905090565b5f5ffd5b5f5ffd5b5f7fffffffff0000000000000000000000000000000000000000000000000000000082169050919050565b6120a681612072565b81146120b0575f5ffd5b50565b5f813590506120c18161209d565b92915050565b5f602082840312156120dc576120db61206a565b5b5f6120e9848285016120b3565b91505092915050565b5f8115159050919050565b612106816120f2565b82525050565b5f60208201905061211f5f8301846120fd565b92915050565b5f81519050919050565b5f82825260208201905092915050565b8281835e5f83830152505050565b5f601f19601f8301169050919050565b5f61216782612125565b612171818561212f565b935061218181856020860161213f565b61218a8161214d565b840191505092915050565b5f6020820190508181035f8301526121ad818461215d565b905092915050565b5f819050919050565b6121c7816121b5565b81146121d1575f5ffd5b50565b5f813590506121e2816121be565b92915050565b5f602082840312156121fd576121fc61206a565b5b5f61220a848285016121d4565b91505092915050565b5f73ffffffffffffffffffffffffffffffffffffffff82169050919050565b5f61223c82612213565b9050919050565b61224c81612232565b82525050565b5f6020820190506122655f830184612243565b92915050565b61227481612232565b811461227e575f5ffd5b50565b5f8135905061228f8161226b565b92915050565b5f5f604083850312156122ab576122aa61206a565b5b5f6122b885828601612281565b92505060206122c9858286016121d4565b9150509250929050565b5f5f5f606084860312156122ea576122e961206a565b5b5f6122f786828701612281565b935050602061230886828701612281565b9250506040612319868287016121d4565b9150509250925092565b5f602082840312156123385761233761206a565b5b5f61234584828501612281565b91505092915050565b612357816121b5565b82525050565b5f6020820190506123705f83018461234e565b92915050565b61237f816120f2565b8114612389575f5ffd5b50565b5f8135905061239a81612376565b92915050565b5f5f604083850312156123b6576123b561206a565b5b5f6123c385828601612281565b92505060206123d48582860161238c565b9150509250929050565b5f5ffd5b5f5ffd5b7f4e487b71000000000000000000000000000000000000000000000000000000005f52604160045260245ffd5b61241c8261214d565b810181811067ffffffffffffffff8211171561243b5761243a6123e6565b5b80604052505050565b5f61244d612061565b90506124598282612413565b919050565b5f67ffffffffffffffff821115612478576124776123e6565b5b6124818261214d565b9050602081019050919050565b828183375f83830152505050565b5f6124ae6124a98461245e565b612444565b9050828152602081018484840111156124ca576124c96123e2565b5b6124d584828561248e565b509392505050565b5f82601f8301126124f1576124f06123de565b5b813561250184826020860161249c565b91505092915050565b5f5f5f5f608085870312156125225761252161206a565b5b5f61252f87828801612281565b945050602061254087828801612281565b9350506040612551878288016121d4565b925050606085013567ffffffffffffffff8111156125725761257161206e565b5b61257e878288016124dd565b91505092959194509250565b5f5f604083850312156125a05761259f61206a565b5b5f6125ad85828601612281565b92505060206125be85828601612281565b9150509250929050565b5f602082840312156125dd576125dc61206a565b5b5f6125ea8482850161238c565b91505092915050565b7f4e487b71000000000000000000000000000000000000000000000000000000005f52602260045260245ffd5b5f600282049050600182168061263757607f821691505b60208210810361264a576126496125f3565b5b50919050565b5f6060820190506126635f830186612243565b612670602083018561234e565b61267d6040830184612243565b949350505050565b7f4d696e74206e6f74206f70656e000000000000000000000000000000000000005f82015250565b5f6126b9600d8361212f565b91506126c482612685565b602082019050919050565b5f6020820190508181035f8301526126e6816126ad565b9050919050565b7f4e487b71000000000000000000000000000000000000000000000000000000005f52601160045260245ffd5b5f612724826121b5565b915061272f836121b5565b9250828201905080821115612747576127466126ed565b5b92915050565b7f45786365656473206d617820737570706c7900000000000000000000000000005f82015250565b5f61278160128361212f565b915061278c8261274d565b602082019050919050565b5f6020820190508181035f8301526127ae81612775565b9050919050565b5f6127bf826121b5565b91506127ca836121b5565b92508282026127d8816121b5565b915082820484148315176127ef576127ee6126ed565b5b5092915050565b7f496e73756666696369656e74207061796d656e740000000000000000000000005f82015250565b5f61282a60148361212f565b9150612835826127f6565b602082019050919050565b5f6020820190508181035f8301526128578161281e565b9050919050565b7f45786365656473206d6178207065722077616c6c6574000000000000000000005f82015250565b5f61289260168361212f565b915061289d8261285e565b602082019050919050565b5f6020820190508181035f8301526128bf81612886565b9050919050565b7f4e487b71000000000000000000000000000000000000000000000000000000005f52601260045260245ffd5b5f6128fd826121b5565b9150612908836121b5565b925082612918576129176128c6565b5b828204905092915050565b5f61292d826121b5565b9150612938836121b5565b92508282039050818111156129505761294f6126ed565b5b92915050565b5f612960826121b5565b91507fffffffffffffffffffffffffffffffffffffffffffffffffffffffffffffffff8203612992576129916126ed565b5b600182019050919050565b5f81905092915050565b5f6129b182612125565b6129bb818561299d565b93506129cb81856020860161213f565b80840191505092915050565b5f6129e282856129a7565b91506129ee82846129a7565b91508190509392505050565b5f81519050919050565b5f82825260208201905092915050565b5f612a1e826129fa565b612a288185612a04565b9350612a3881856020860161213f565b612a418161214d565b840191505092915050565b5f608082019050612a5f5f830187612243565b612a6c6020830186612243565b612a79604083018561234e565b8181036060830152612a8b8184612a14565b905095945050505050565b5f81519050612aa48161209d565b92915050565b5f60208284031215612abf57612abe61206a565b5b5f612acc84828501612a96565b91505092915050565b5f604082019050612ae85f830185612243565b612af5602083018461234e565b939250505056fea2646970667358221220b218dfe762c4a906344ffa5bfa77d2fad85061c0b3e16c8dcb09104a49d31c3164736f6c634300081c0033",
  "linkReferences": {},
  "deployedLinkReferences": {},
  "immutableReferences": {},
  "inputSourceName": "project/contracts/SigilNFT.sol",
  "buildInfoId": "solc-0_8_28-a8581ca750e062dbf75c10a56a4e2c85e0826a68"
}